{
  "_format": "hh-sol-artifact-1",
  "contractName": "AgentRegistry",
  "sourceName": "contracts/AgentRegistry.sol",
  "abi": [
    {
      "anonymous": false,
      "inputs": [
        {
          "indexed": true,
          "internalType": "bytes32",
          "name": "agentId",
          "type": "bytes32"
        },
        {
          "indexed": true,
          "internalType": "address",
          "name": "owner",
          "type": "address"
        }
      ],
      "name": "AgentActivated",
      "type": "event"
    },
    {
      "anonymous": false,
      "inputs": [
        {
          "indexed": true,
          "internalType": "bytes32",
          "name": "agentId",
          "type": "bytes32"
        },
        {
          "indexed": true,
          "internalType": "address",
          "name": "owner",
          "type": "address"
        }
      ],
      "name": "AgentDeactivated",
      "type": "event"
    },
    {
      "anonymous": false,
      "inputs": [
        {
          "indexed": true,
          "internalType": "bytes32",
          "name": "agentId",
          "type": "bytes32"
        },
        {
          "indexed": false,
          "internalType": "string",
          "name": "name",
          "type": "string"
        },
        {
          "indexed": true,
          "internalType": "address",
          "name": "owner",
          "type": "address"
        },
        {
          "indexed": false,
          "internalType": "string",
          "name": "category",
          "type": "string"
        }
      ],
      "name": "AgentRegistered",
      "type": "event"
    },
    {
      "anonymous": false,
      "inputs": [
        {
          "indexed": true,
          "internalType": "bytes32",
          "name": "agentId",
          "type": "bytes32"
        },
        {
          "indexed": true,
          "internalType": "address",
          "name": "owner",
          "type": "address"
        }
      ],
      "name": "AgentUpdated",
      "type": "event"
    },
    {
      "anonymous": false,
      "inputs": [
        {
          "indexed": true,
          "internalType": "bytes32",
          "name": "agentId",
          "type": "bytes32"
        },
        {
          "indexed": false,
          "internalType": "uint256",
          "name": "newTotalRatings",
          "type": "uint256"
        },
        {
          "indexed": false,
          "internalType": "uint256",
          "name": "newRatingCount",
          "type": "uint256"
        },
        {
          "indexed": false,
          "internalType": "uint256",
          "name": "averageRating",
          "type": "uint256"
        }
      ],
      "name": "RatingUpdated",
      "type": "event"
    },
    {
      "anonymous": false,
      "inputs": [
        {
          "indexed": true,
          "internalType": "bytes32",
          "name": "txId",
          "type": "bytes32"
        },
        {
          "indexed": true,
          "internalType": "bytes32",
          "name": "agentId",
          "type": "bytes32"
        },
        {
          "indexed": true,
          "internalType": "address",
          "name": "caller",
          "type": "address"
        },
        {
          "indexed": false,
          "internalType": "uint8",
          "name": "rating",
          "type": "uint8"
        },
        {
          "indexed": false,
          "internalType": "uint256",
          "name": "amount",
          "type": "uint256"
        }
      ],
      "name": "TransactionRecorded",
      "type": "event"
    },
    {
      "inputs": [
        {
          "internalType": "bytes32",
          "name": "agentId",
          "type": "bytes32"
        }
      ],
      "name": "activateAgent",
      "outputs": [],
      "stateMutability": "nonpayable",
      "type": "function"
    },
    {
      "inputs": [
        {
          "internalType": "bytes32",
          "name": "",
          "type": "bytes32"
        }
      ],
      "name": "agentCards",
      "outputs": [
        {
          "internalType": "bytes32",
          "name": "agentId",
          "type": "bytes32"
        },
        {
          "internalType": "string",
          "name": "name",
          "type": "string"
        },
        {
          "internalType": "string",
          "name": "description",
          "type": "string"
        },
        {
          "internalType": "string",
          "name": "url",
          "type": "string"
        },
        {
          "internalType": "string",
          "name": "version",
          "type": "string"
        },
        {
          "internalType": "address",
          "name": "owner",
          "type": "address"
        },
        {
          "internalType": "bool",
          "name": "isActive",
          "type": "bool"
        },
        {
          "internalType": "uint256",
          "name": "createdAt",
          "type": "uint256"
        },
        {
          "internalType": "uint256",
          "name": "totalRatings",
          "type": "uint256"
        },
        {
          "internalType": "uint256",
          "name": "ratingCount",
          "type": "uint256"
        },
        {
          "components": [
            {
              "internalType": "address",
              "name": "tokenAddress",
              "type": "address"
            },
            {
              "internalType": "address",
              "name": "receiverAddress",
              "type": "address"
            },
            {
              "internalType": "uint256",
              "name": "pricePerCall",
              "type": "uint256"
            },
            {
              "internalType": "string",
              "name": "chain",
              "type": "string"
            }
          ],
          "internalType": "struct AgentRegistry.PaymentInfo",
          "name": "payment",
          "type": "tuple"
        },
        {
          "internalType": "string",
          "name": "category",
          "type": "string"
        },
        {
          "internalType": "string",
          "name": "imageUrl",
          "type": "string"
        }
      ],
      "stateMutability": "view",
      "type": "function"
    },
    {
      "inputs": [
        {
          "internalType": "string",
          "name": "",
          "type": "string"
        },
        {
          "internalType": "uint256",
          "name": "",
          "type": "uint256"
        }
      ],
      "name": "agentsByCategory",
      "outputs": [
        {
          "internalType": "bytes32",
          "name": "",
          "type": "bytes32"
        }
      ],
      "stateMutability": "view",
      "type": "function"
    },
    {
      "inputs": [
        {
          "internalType": "uint256",
          "name": "",
          "type": "uint256"
        }
      ],
      "name": "allAgentIds",
      "outputs": [
        {
          "internalType": "bytes32",
          "name": "",
          "type": "bytes32"
        }
      ],
      "stateMutability": "view",
      "type": "function"
    },
    {
      "inputs": [
        {
          "internalType": "bytes32",
          "name": "agentId",
          "type": "bytes32"
        }
      ],
      "name": "deactivateAgent",
      "outputs": [],
      "stateMutability": "nonpayable",
      "type": "function"
    },
    {
      "inputs": [
        {
          "internalType": "string",
          "name": "category",
          "type": "string"
        }
      ],
      "name": "getActiveAgentsByCategory",
      "outputs": [
        {
          "internalType": "bytes32[]",
          "name": "",
          "type": "bytes32[]"
        }
      ],
      "stateMutability": "view",
      "type": "function"
    },
    {
      "inputs": [
        {
          "internalType": "bytes32",
          "name": "agentId",
          "type": "bytes32"
        }
      ],
      "name": "getAgentCard",
      "outputs": [
        {
          "components": [
            {
              "internalType": "bytes32",
              "name": "agentId",
              "type": "bytes32"
            },
            {
              "internalType": "string",
              "name": "name",
              "type": "string"
            },
            {
              "internalType": "string",
              "name": "description",
              "type": "string"
            },
            {
              "internalType": "string",
              "name": "url",
              "type": "string"
            },
            {
              "internalType": "string",
              "name": "version",
              "type": "string"
            },
            {
              "internalType": "string[]",
              "name": "defaultInputModes",
              "type": "string[]"
            },
            {
              "internalType": "string[]",
              "name": "defaultOutputModes",
              "type": "string[]"
            },
            {
              "components": [
                {
                  "internalType": "string",
                  "name": "id",
                  "type": "string"
                },
                {
                  "internalType": "string",
                  "name": "name",
                  "type": "string"
                },
                {
                  "internalType": "string",
                  "name": "description",
                  "type": "string"
                }
              ],
              "internalType": "struct AgentRegistry.Skill[]",
              "name": "skills",
              "type": "tuple[]"
            },
            {
              "internalType": "address",
              "name": "owner",
              "type": "address"
            },
            {
              "internalType": "bool",
              "name": "isActive",
              "type": "bool"
            },
            {
              "internalType": "uint256",
              "name": "createdAt",
              "type": "uint256"
            },
            {
              "internalType": "uint256",
              "name": "totalRatings",
              "type": "uint256"
            },
            {
              "internalType": "uint256",
              "name": "ratingCount",
              "type": "uint256"
            },
            {
              "components": [
                {
                  "internalType": "address",
                  "name": "tokenAddress",
                  "type": "address"
                },
                {
                  "internalType": "address",
                  "name": "receiverAddress",
                  "type": "address"
                },
                {
                  "internalType": "uint256",
                  "name": "pricePerCall",
                  "type": "uint256"
                },
                {
                  "internalType": "string",
                  "name": "chain",
                  "type": "string"
                }
              ],
              "internalType": "struct AgentRegistry.PaymentInfo",
              "name": "payment",
              "type": "tuple"
            },
            {
              "internalType": "string",
              "name": "category",
              "type": "string"
            },
            {
              "internalType": "string",
              "name": "imageUrl",
              "type": "string"
            }
          ],
          "internalType": "struct AgentRegistry.AgentCard",
          "name": "",
          "type": "tuple"
        }
      ],
      "stateMutability": "view",
      "type": "function"
    },
    {
      "inputs": [
        {
          "internalType": "string",
          "name": "category",
          "type": "string"
        }
      ],
      "name": "getAgentsByCategory",
      "outputs": [
        {
          "internalType": "bytes32[]",
          "name": "",
          "type": "bytes32[]"
        }
      ],
      "stateMutability": "view",
      "type": "function"
    },
    {
      "inputs": [],
      "name": "getAllAgentIds",
      "outputs": [
        {
          "internalType": "bytes32[]",
          "name": "",
          "type": "bytes32[]"
        }
      ],
      "stateMutability": "view",
      "type": "function"
    },
    {
      "inputs": [],
      "name": "getAllTransactionIds",
      "outputs": [
        {
          "internalType": "bytes32[]",
          "name": "",
          "type": "bytes32[]"
        }
      ],
      "stateMutability": "view",
      "type": "function"
    },
    {
      "inputs": [
        {
          "internalType": "bytes32",
          "name": "agentId",
          "type": "bytes32"
        }
      ],
      "name": "getAverageRating",
      "outputs": [
        {
          "internalType": "uint256",
          "name": "",
          "type": "uint256"
        }
      ],
      "stateMutability": "view",
      "type": "function"
    },
    {
      "inputs": [],
      "name": "getTotalAgentCount",
      "outputs": [
        {
          "internalType": "uint256",
          "name": "",
          "type": "uint256"
        }
      ],
      "stateMutability": "view",
      "type": "function"
    },
    {
      "inputs": [],
      "name": "getTotalTransactionCount",
      "outputs": [
        {
          "internalType": "uint256",
          "name": "",
          "type": "uint256"
        }
      ],
      "stateMutability": "view",
      "type": "function"
    },
    {
      "inputs": [
        {
          "internalType": "bytes32",
          "name": "txId",
          "type": "bytes32"
        }
      ],
      "name": "getTransaction",
      "outputs": [
        {
          "components": [
            {
              "internalType": "bytes32",
              "name": "txId",
              "type": "bytes32"
            },
            {
              "internalType": "bytes32",
              "name": "agentId",
              "type": "bytes32"
            },
            {
              "internalType": "address",
              "name": "caller",
              "type": "address"
            },
            {
              "internalType": "uint8",
              "name": "rating",
              "type": "uint8"
            },
            {
              "internalType": "uint256",
              "name": "amount",
              "type": "uint256"
            },
            {
              "internalType": "uint256",
              "name": "timestamp",
              "type": "uint256"
            }
          ],
          "internalType": "struct AgentRegistry.Transaction",
          "name": "",
          "type": "tuple"
        }
      ],
      "stateMutability": "view",
      "type": "function"
    },
    {
      "inputs": [
        {
          "internalType": "bytes32",
          "name": "txId",
          "type": "bytes32"
        },
        {
          "internalType": "bytes32",
          "name": "agentId",
          "type": "bytes32"
        },
        {
          "internalType": "uint256",
          "name": "amount",
          "type": "uint256"
        }
      ],
      "name": "recordTransaction",
      "outputs": [],
      "stateMutability": "nonpayable",
      "type": "function"
    },
    {
      "inputs": [
        {
          "internalType": "bytes32",
          "name": "agentId",
          "type": "bytes32"
        },
        {
          "internalType": "string",
          "name": "name",
          "type": "string"
        },
        {
          "internalType": "string",
          "name": "description",
          "type": "string"
        },
        {
          "internalType": "string",
          "name": "url",
          "type": "string"
        },
        {
          "internalType": "string",
          "name": "version",
          "type": "string"
        },
        {
          "internalType": "string[]",
          "name": "defaultInputModes",
          "type": "string[]"
        },
        {
          "internalType": "string[]",
          "name": "defaultOutputModes",
          "type": "string[]"
        },
        {
          "components": [
            {
              "internalType": "string",
              "name": "id",
              "type": "string"
            },
            {
              "internalType": "string",
              "name": "name",
              "type": "string"
            },
            {
              "internalType": "string",
              "name": "description",
              "type": "string"
            }
          ],
          "internalType": "struct AgentRegistry.Skill[]",
          "name": "skills",
          "type": "tuple[]"
        },
        {
          "components": [
            {
              "internalType": "address",
              "name": "tokenAddress",
              "type": "address"
            },
            {
              "internalType": "address",
              "name": "receiverAddress",
              "type": "address"
            },
            {
              "internalType": "uint256",
              "name": "pricePerCall",
              "type": "uint256"
            },
            {
              "internalType": "string",
              "name": "chain",
              "type": "string"
            }
          ],
          "internalType": "struct AgentRegistry.PaymentInfo",
          "name": "payment",
          "type": "tuple"
        },
        {
          "internalType": "string",
          "name": "category",
          "type": "string"
        },
        {
          "internalType": "string",
          "name": "imageUrl",
          "type": "string"
        }
      ],
      "name": "registerAgent",
      "outputs": [],
      "stateMutability": "nonpayable",
      "type": "function"
    },
    {
      "inputs": [
        {
          "internalType": "uint256",
          "name": "",
          "type": "uint256"
        }
      ],
      "name": "transactionIds",
      "outputs": [
        {
          "internalType": "bytes32",
          "name": "",
          "type": "bytes32"
        }
      ],
      "stateMutability": "view",
      "type": "function"
    },
    {
      "inputs": [
        {
          "internalType": "bytes32",
          "name": "",
          "type": "bytes32"
        }
      ],
      "name": "transactions",
      "outputs": [
        {
          "internalType": "bytes32",
          "name": "txId",
          "type": "bytes32"
        },
        {
          "internalType": "bytes32",
          "name": "agentId",
          "type": "bytes32"
        },
        {
          "internalType": "address",
          "name": "caller",
          "type": "address"
        },
        {
          "internalType": "uint8",
          "name": "rating",
          "type": "uint8"
        },
        {
          "internalType": "uint256",
          "name": "amount",
          "type": "uint256"
        },
        {
          "internalType": "uint256",
          "name": "timestamp",
          "type": "uint256"
        }
      ],
      "stateMutability": "view",
      "type": "function"
    },
    {
      "inputs": [
        {
          "internalType": "bytes32",
          "name": "agentId",
          "type": "bytes32"
        },
        {
          "internalType": "string",
          "name": "name",
          "type": "string"
        },
        {
          "internalType": "string",
          "name": "description",
          "type": "string"
        },
        {
          "internalType": "string",
          "name": "url",
          "type": "string"
        },
        {
          "internalType": "string",
          "name": "version",
          "type": "string"
        },
        {
          "components": [
            {
              "internalType": "address",
              "name": "tokenAddress",
              "type": "address"
            },
            {
              "internalType": "address",
              "name": "receiverAddress",
              "type": "address"
            },
            {
              "internalType": "uint256",
              "name": "pricePerCall",
              "type": "uint256"
            },
            {
              "internalType": "string",
              "name": "chain",
              "type": "string"
            }
          ],
          "internalType": "struct AgentRegistry.PaymentInfo",
          "name": "payment",
          "type": "tuple"
        },
        {
          "internalType": "string",
          "name": "imageUrl",
          "type": "string"
        }
      ],
      "name": "updateAgent",
      "outputs": [],
      "stateMutability": "nonpayable",
      "type": "function"
    },
    {
      "inputs": [
        {
          "internalType": "bytes32",
          "name": "txId",
          "type": "bytes32"
        },
        {
          "internalType": "uint8",
          "name": "rating",
          "type": "uint8"
        }
      ],
      "name": "updateTransactionRating",
      "outputs": [],
      "stateMutability": "nonpayable",
      "type": "function"
    }
  ],
  "bytecode": "0x608060405234801561001057600080fd5b506138e0806100206000396000f3fe608060405234801561001057600080fd5b506004361061012c5760003560e01c8063642f2eaf116100ad578063c0cf28a911610071578063c0cf28a914610344578063c2c01a1d1461034c578063c35c561b1461035f578063d7b8b9cc14610372578063e36f8dc51461038557600080fd5b8063642f2eaf1461025c5780638b2624a9146102eb57806390acb0491461030b57806398be7c8d1461031e578063b015813b1461033157600080fd5b80634c2d0378116100f45780634c2d0378146101ef57806352145296146101f7578063530310401461020a57806354a4f4421461021d57806359b5acf31461024957600080fd5b80631136a595146101315780633bebab8b1461014f578063424ad8f1146101645780634a97b1b5146101775780634aae13ca14610189575b600080fd5b610139610398565b6040516101469190612a64565b60405180910390f35b61016261015d366004612aa8565b6103f0565b005b610162610172366004612c67565b6105d2565b6005545b604051908152602001610146565b61019c610197366004612d66565b61078a565b604051610146919081518152602080830151908201526040808301516001600160a01b03169082015260608083015160ff16908201526080808301519082015260a0918201519181019190915260c00190565b610139610852565b610162610205366004612f36565b6108a8565b61017b610218366004612d66565b610d52565b61023061022b366004612d66565b611606565b6040516101469d9c9b9a99989796959493929190613170565b610162610257366004612d66565b611a6e565b6102ad61026a366004612d66565b60016020819052600091825260409091208054918101546002820154600383015460049093015491926001600160a01b03821692600160a01b90920460ff169186565b6040805196875260208701959095526001600160a01b039093169385019390935260ff166060840152608083019190915260a082015260c001610146565b6102fe6102f9366004612d66565b611b24565b6040516101469190613322565b6101396103193660046134bc565b6123d5565b61017b61032c366004612d66565b612445565b61016261033f366004612d66565b612466565b60035461017b565b61013961035a3660046134bc565b612522565b61016261036d3660046134f0565b6126f4565b61017b61038036600461351c565b61288e565b61017b610393366004612d66565b6128ce565b606060038054806020026020016040519081016040528092919081815260200182805480156103e657602002820191906000526020600020905b8154815260200190600101908083116103d2575b5050505050905090565b60018160ff1610158015610408575060058160ff1611155b6104635760405162461bcd60e51b815260206004820152602160248201527f4167656e7452656769737472793a20726174696e67206d75737420626520312d6044820152603560f81b60648201526084015b60405180910390fd5b600082815260016020526040902060028101546001600160a01b031633146104e25760405162461bcd60e51b815260206004820152602c60248201527f4167656e7452656769737472793a206f6e6c792063616c6c65722063616e207560448201526b706461746520726174696e6760a01b606482015260840161045a565b60008160040154116105065760405162461bcd60e51b815260040161045a90613560565b60018101546002820154600160a01b900460ff16801561055e576000828152602081905260409020600a8101546105419060ff8416906135bf565b600a820155600b810154610557906001906135bf565b600b909101555b60028301805460ff60a01b1916600160a01b60ff87160217905561058282856128de565b60038301546040805160ff8716815260208101929092523391849188917f40f568e171612852da04ea7dcd75341b8822d8b5919d71156ca12df5f914661791015b60405180910390a45050505050565b60008781526020819052604090206008015487906001600160a01b0316331461060d5760405162461bcd60e51b815260040161045a906135d8565b600088815260026020526040902054889060ff1661063d5760405162461bcd60e51b815260040161045a9061360f565b600089815260208190526040902088511561066257600181016106608a826136db565b505b875115610679576002810161067789826136db565b505b865115610690576003810161068e88826136db565b505b8551156106a757600481016106a587826136db565b505b60208501516001600160a01b03161561073a5760008560400151116106de5760405162461bcd60e51b815260040161045a9061379a565b8451600c820180546001600160a01b039283166001600160a01b03199182161782556020880151600d85018054919094169116179091556040860151600e8301556060860151869190600f84019061073690826136db565b5050505b835115610751576011810161074f85826136db565b505b60405133908b907fe0b7bfc4670bdbd796093cd1acc05b46a3e8a05464360d199cbf95084ba40a3b90600090a350505050505050505050565b6040805160c081018252600080825260208201819052918101829052606081018290526080810182905260a08101919091526000828152600160205260409020600401546107ea5760405162461bcd60e51b815260040161045a90613560565b50600090815260016020818152604092839020835160c08101855281548152928101549183019190915260028101546001600160a01b03811693830193909352600160a01b90920460ff1660608201526003820154608082015260049091015460a082015290565b606060058054806020026020016040519081016040528092919081815260200182805480156103e657602002820191906000526020600020908154815260200190600101908083116103d2575050505050905090565b60008b81526002602052604090205460ff16156109135760405162461bcd60e51b815260206004820152602360248201527f4167656e7452656769737472793a206167656e7420616c72656164792065786960448201526273747360e81b606482015260840161045a565b60008a51116109645760405162461bcd60e51b815260206004820152601c60248201527f4167656e7452656769737472793a206e616d6520726571756972656400000000604482015260640161045a565b60008851116109b55760405162461bcd60e51b815260206004820152601b60248201527f4167656e7452656769737472793a2075726c2072657175697265640000000000604482015260640161045a565b60208301516001600160a01b0316610a1f5760405162461bcd60e51b815260206004820152602760248201527f4167656e7452656769737472793a20696e76616c6964207265636569766572206044820152666164647265737360c81b606482015260840161045a565b6000836040015111610a435760405162461bcd60e51b815260040161045a9061379a565b60008b81526020819052604090208b815560018101610a628c826136db565b5060028101610a718b826136db565b5060038101610a808a826136db565b5060048101610a8f89826136db565b5060088101805460ff60a01b1933166001600160a81b031990911617600160a01b17905542600982015560108101610ac784826136db565b508351600c820180546001600160a01b039283166001600160a01b03199182161782556020870151600d85018054919094169116179091556040850151600e8301556060850151859190600f840190610b2090826136db565b50505060118101610b3183826136db565b5060005b8751811015610b905781600501888281518110610b5457610b546137e5565b60209081029190910181015182546001810184556000938452919092200190610b7d90826136db565b5080610b88816137fb565b915050610b35565b5060005b8651811015610bef5781600601878281518110610bb357610bb36137e5565b60209081029190910181015182546001810184556000938452919092200190610bdc90826136db565b5080610be7816137fb565b915050610b94565b5060005b8551811015610c845781600701868281518110610c1257610c126137e5565b60209081029190910181015182546001810184556000938452919092208251600390920201908190610c4490826136db565b5060208201516001820190610c5990826136db565b5060408201516002820190610c6e90826136db565b5050508080610c7c906137fb565b915050610bf3565b5060008c815260026020526040808220805460ff191660019081179091556003805491820181559092527fc2575a0e9e593c00f959f8c92f12db2869c3395a3b0502d05e2516446f71f85b9091018d905551600490610ce4908590613814565b908152604051908190036020908101822080546001810182556000918252919020018d905533908d907f92e6a11a0220e9609f1c1e61d6ccf8f7db43273e498297804d6a2d4753b9caf490610d3c908f908890613830565b60405180910390a3505050505050505050505050565b6000818152602081815260408083208151610200810190925280548252600181018054859484019190610d8490613652565b80601f0160208091040260200160405190810160405280929190818152602001828054610db090613652565b8015610dfd5780601f10610dd257610100808354040283529160200191610dfd565b820191906000526020600020905b815481529060010190602001808311610de057829003601f168201915b50505050508152602001600282018054610e1690613652565b80601f0160208091040260200160405190810160405280929190818152602001828054610e4290613652565b8015610e8f5780601f10610e6457610100808354040283529160200191610e8f565b820191906000526020600020905b815481529060010190602001808311610e7257829003601f168201915b50505050508152602001600382018054610ea890613652565b80601f0160208091040260200160405190810160405280929190818152602001828054610ed490613652565b8015610f215780601f10610ef657610100808354040283529160200191610f21565b820191906000526020600020905b815481529060010190602001808311610f0457829003601f168201915b50505050508152602001600482018054610f3a90613652565b80601f0160208091040260200160405190810160405280929190818152602001828054610f6690613652565b8015610fb35780601f10610f8857610100808354040283529160200191610fb3565b820191906000526020600020905b815481529060010190602001808311610f9657829003601f168201915b5050505050815260200160058201805480602002602001604051908101604052809291908181526020016000905b8282101561108d57838290600052602060002001805461100090613652565b80601f016020809104026020016040519081016040528092919081815260200182805461102c90613652565b80156110795780601f1061104e57610100808354040283529160200191611079565b820191906000526020600020905b81548152906001019060200180831161105c57829003601f168201915b505050505081526020019060010190610fe1565b50505050815260200160068201805480602002602001604051908101604052809291908181526020016000905b828210156111665783829060005260206000200180546110d990613652565b80601f016020809104026020016040519081016040528092919081815260200182805461110590613652565b80156111525780601f1061112757610100808354040283529160200191611152565b820191906000526020600020905b81548152906001019060200180831161113557829003601f168201915b5050505050815260200190600101906110ba565b50505050815260200160078201805480602002602001604051908101604052809291908181526020016000905b8282101561137b57838290600052602060002090600302016040518060600160405290816000820180546111c690613652565b80601f01602080910402602001604051908101604052809291908181526020018280546111f290613652565b801561123f5780601f106112145761010080835404028352916020019161123f565b820191906000526020600020905b81548152906001019060200180831161122257829003601f168201915b5050505050815260200160018201805461125890613652565b80601f016020809104026020016040519081016040528092919081815260200182805461128490613652565b80156112d15780601f106112a6576101008083540402835291602001916112d1565b820191906000526020600020905b8154815290600101906020018083116112b457829003601f168201915b505050505081526020016002820180546112ea90613652565b80601f016020809104026020016040519081016040528092919081815260200182805461131690613652565b80156113635780601f1061133857610100808354040283529160200191611363565b820191906000526020600020905b81548152906001019060200180831161134657829003601f168201915b50505050508152505081526020019060010190611193565b5050509082525060088201546001600160a01b03808216602080850191909152600160a01b90920460ff1615156040808501919091526009850154606080860191909152600a860154608080870191909152600b87015460a087015282519081018352600c8701805485168252600d88015490941694810194909452600e86015491840191909152600f8501805460c0909501949184019161141c90613652565b80601f016020809104026020016040519081016040528092919081815260200182805461144890613652565b80156114955780601f1061146a57610100808354040283529160200191611495565b820191906000526020600020905b81548152906001019060200180831161147857829003601f168201915b50505050508152505081526020016010820180546114b290613652565b80601f01602080910402602001604051908101604052809291908181526020018280546114de90613652565b801561152b5780601f106115005761010080835404028352916020019161152b565b820191906000526020600020905b81548152906001019060200180831161150e57829003601f168201915b5050505050815260200160118201805461154490613652565b80601f016020809104026020016040519081016040528092919081815260200182805461157090613652565b80156115bd5780601f10611592576101008083540402835291602001916115bd565b820191906000526020600020905b8154815290600101906020018083116115a057829003601f168201915b50505050508152505090508061018001516000036115de5750600092915050565b6101808101516101608201516115f590606461385e565b6115ff9190613875565b9392505050565b6000602081905290815260409020805460018201805491929161162890613652565b80601f016020809104026020016040519081016040528092919081815260200182805461165490613652565b80156116a15780601f10611676576101008083540402835291602001916116a1565b820191906000526020600020905b81548152906001019060200180831161168457829003601f168201915b5050505050908060020180546116b690613652565b80601f01602080910402602001604051908101604052809291908181526020018280546116e290613652565b801561172f5780601f106117045761010080835404028352916020019161172f565b820191906000526020600020905b81548152906001019060200180831161171257829003601f168201915b50505050509080600301805461174490613652565b80601f016020809104026020016040519081016040528092919081815260200182805461177090613652565b80156117bd5780601f10611792576101008083540402835291602001916117bd565b820191906000526020600020905b8154815290600101906020018083116117a057829003601f168201915b5050505050908060040180546117d290613652565b80601f01602080910402602001604051908101604052809291908181526020018280546117fe90613652565b801561184b5780601f106118205761010080835404028352916020019161184b565b820191906000526020600020905b81548152906001019060200180831161182e57829003601f168201915b5050505060088301546009840154600a850154600b86015460408051608081018252600c890180546001600160a01b039081168352600d8b015481166020840152600e8b015493830193909352600f8a018054999a93881699600160a01b90980460ff16985095969495939492939192909160608401916118cb90613652565b80601f01602080910402602001604051908101604052809291908181526020018280546118f790613652565b80156119445780601f1061191957610100808354040283529160200191611944565b820191906000526020600020905b81548152906001019060200180831161192757829003601f168201915b5050505050815250509080601001805461195d90613652565b80601f016020809104026020016040519081016040528092919081815260200182805461198990613652565b80156119d65780601f106119ab576101008083540402835291602001916119d6565b820191906000526020600020905b8154815290600101906020018083116119b957829003601f168201915b5050505050908060110180546119eb90613652565b80601f0160208091040260200160405190810160405280929190818152602001828054611a1790613652565b8015611a645780601f10611a3957610100808354040283529160200191611a64565b820191906000526020600020905b815481529060010190602001808311611a4757829003601f168201915b505050505090508d565b60008181526020819052604090206008015481906001600160a01b03163314611aa95760405162461bcd60e51b815260040161045a906135d8565b600082815260026020526040902054829060ff16611ad95760405162461bcd60e51b815260040161045a9061360f565b600083815260208190526040808220600801805460ff60a01b1916905551339185917f91934f0b1f0a6921a5fe3717b6e58911ec51866ebe14f17b60fde90d91bce3fe9190a3505050565b611b2c61299e565b60008281526002602052604090205460ff16611b5a5760405162461bcd60e51b815260040161045a9061360f565b6000828152602081815260409182902082516102008101909352805483526001810180549192840191611b8c90613652565b80601f0160208091040260200160405190810160405280929190818152602001828054611bb890613652565b8015611c055780601f10611bda57610100808354040283529160200191611c05565b820191906000526020600020905b815481529060010190602001808311611be857829003601f168201915b50505050508152602001600282018054611c1e90613652565b80601f0160208091040260200160405190810160405280929190818152602001828054611c4a90613652565b8015611c975780601f10611c6c57610100808354040283529160200191611c97565b820191906000526020600020905b815481529060010190602001808311611c7a57829003601f168201915b50505050508152602001600382018054611cb090613652565b80601f0160208091040260200160405190810160405280929190818152602001828054611cdc90613652565b8015611d295780601f10611cfe57610100808354040283529160200191611d29565b820191906000526020600020905b815481529060010190602001808311611d0c57829003601f168201915b50505050508152602001600482018054611d4290613652565b80601f0160208091040260200160405190810160405280929190818152602001828054611d6e90613652565b8015611dbb5780601f10611d9057610100808354040283529160200191611dbb565b820191906000526020600020905b815481529060010190602001808311611d9e57829003601f168201915b5050505050815260200160058201805480602002602001604051908101604052809291908181526020016000905b82821015611e95578382906000526020600020018054611e0890613652565b80601f0160208091040260200160405190810160405280929190818152602001828054611e3490613652565b8015611e815780601f10611e5657610100808354040283529160200191611e81565b820191906000526020600020905b815481529060010190602001808311611e6457829003601f168201915b505050505081526020019060010190611de9565b50505050815260200160068201805480602002602001604051908101604052809291908181526020016000905b82821015611f6e578382906000526020600020018054611ee190613652565b80601f0160208091040260200160405190810160405280929190818152602001828054611f0d90613652565b8015611f5a5780601f10611f2f57610100808354040283529160200191611f5a565b820191906000526020600020905b815481529060010190602001808311611f3d57829003601f168201915b505050505081526020019060010190611ec2565b50505050815260200160078201805480602002602001604051908101604052809291908181526020016000905b828210156121835783829060005260206000209060030201604051806060016040529081600082018054611fce90613652565b80601f0160208091040260200160405190810160405280929190818152602001828054611ffa90613652565b80156120475780601f1061201c57610100808354040283529160200191612047565b820191906000526020600020905b81548152906001019060200180831161202a57829003601f168201915b5050505050815260200160018201805461206090613652565b80601f016020809104026020016040519081016040528092919081815260200182805461208c90613652565b80156120d95780601f106120ae576101008083540402835291602001916120d9565b820191906000526020600020905b8154815290600101906020018083116120bc57829003601f168201915b505050505081526020016002820180546120f290613652565b80601f016020809104026020016040519081016040528092919081815260200182805461211e90613652565b801561216b5780601f106121405761010080835404028352916020019161216b565b820191906000526020600020905b81548152906001019060200180831161214e57829003601f168201915b50505050508152505081526020019060010190611f9b565b5050509082525060088201546001600160a01b03808216602080850191909152600160a01b90920460ff1615156040808501919091526009850154606080860191909152600a860154608080870191909152600b87015460a087015282519081018352600c8701805485168252600d88015490941694810194909452600e86015491840191909152600f8501805460c0909501949184019161222490613652565b80601f016020809104026020016040519081016040528092919081815260200182805461225090613652565b801561229d5780601f106122725761010080835404028352916020019161229d565b820191906000526020600020905b81548152906001019060200180831161228057829003601f168201915b50505050508152505081526020016010820180546122ba90613652565b80601f01602080910402602001604051908101604052809291908181526020018280546122e690613652565b80156123335780601f1061230857610100808354040283529160200191612333565b820191906000526020600020905b81548152906001019060200180831161231657829003601f168201915b5050505050815260200160118201805461234c90613652565b80601f016020809104026020016040519081016040528092919081815260200182805461237890613652565b80156123c55780601f1061239a576101008083540402835291602001916123c5565b820191906000526020600020905b8154815290600101906020018083116123a857829003601f168201915b5050505050815250509050919050565b60606004826040516123e79190613814565b908152604080519182900360209081018320805480830285018301909352828452919083018282801561243957602002820191906000526020600020905b815481526020019060010190808311612425575b50505050509050919050565b6003818154811061245557600080fd5b600091825260209091200154905081565b60008181526020819052604090206008015481906001600160a01b031633146124a15760405162461bcd60e51b815260040161045a906135d8565b600082815260026020526040902054829060ff166124d15760405162461bcd60e51b815260040161045a9061360f565b600083815260208190526040808220600801805460ff60a01b1916600160a01b17905551339185917fafcc6eb8bf518f1eb2f06f1cf5b8afe789028f82e41d98501af0c553f6060ab19190a3505050565b606060006004836040516125369190613814565b908152604080519182900360209081018320805480830285018301909352828452919083018282801561258857602002820191906000526020600020905b815481526020019060010190808311612574575b505050505090506000805b82518110156125fd576000808483815181106125b1576125b16137e5565b6020026020010151815260200190815260200160002060080160149054906101000a900460ff16156125eb57816125e7816137fb565b9250505b806125f5816137fb565b915050612593565b506000816001600160401b0381111561261857612618612ade565b604051908082528060200260200182016040528015612641578160200160208202803683370190505b5090506000805b84518110156126e957600080868381518110612666576126666137e5565b6020026020010151815260200190815260200160002060080160149054906101000a900460ff16156126d7578481815181106126a4576126a46137e5565b60200260200101518383815181106126be576126be6137e5565b6020908102919091010152816126d3816137fb565b9250505b806126e1816137fb565b915050612648565b509095945050505050565b600082815260026020526040902054829060ff166127245760405162461bcd60e51b815260040161045a9061360f565b600084815260016020526040902060040154156127955760405162461bcd60e51b815260206004820152602960248201527f4167656e7452656769737472793a207472616e73616374696f6e20616c72656160448201526864792065786973747360b81b606482015260840161045a565b6040805160c081018252858152602080820186815233838501818152600060608601818152608087018a81524260a089019081528d845260018089528a85208a5181559751888201559451600288018054945160ff16600160a01b026001600160a81b03199095166001600160a01b0390921691909117939093179092555160038601555160049094019390935560058054918201815583527f036b6384b5eca791c62761152d0c79bb0604c104a5fb6f4eb0703f3154bb3db001899055845191825291810186905291929091869188917f40f568e171612852da04ea7dcd75341b8822d8b5919d71156ca12df5f914661791016105c3565b815160208184018101805160048252928201918501919091209190528054829081106128b957600080fd5b90600052602060002001600091509150505481565b6005818154811061245557600080fd5b6000828152602081905260409020600a8101546128ff9060ff841690613897565b600a820155600b810154612914906001613897565b600b8201819055600090612929576000612948565b600b820154600a83015461293e90606461385e565b6129489190613875565b600a830154600b840154604080519283526020830191909152810182905290915084907f0505d397895bddc5f6a6db94a15bb2da824239ebb937e213898eb253e7dcf7149060600160405180910390a250505050565b604051806102000160405280600080191681526020016060815260200160608152602001606081526020016060815260200160608152602001606081526020016060815260200160006001600160a01b03168152602001600015158152602001600081526020016000815260200160008152602001612a50604051806080016040528060006001600160a01b0316815260200160006001600160a01b0316815260200160008152602001606081525090565b815260200160608152602001606081525090565b6020808252825182820181905260009190848201906040850190845b81811015612a9c57835183529284019291840191600101612a80565b50909695505050505050565b60008060408385031215612abb57600080fd5b82359150602083013560ff81168114612ad357600080fd5b809150509250929050565b634e487b7160e01b600052604160045260246000fd5b604051606081016001600160401b0381118282101715612b1657612b16612ade565b60405290565b604051601f8201601f191681016001600160401b0381118282101715612b4457612b44612ade565b604052919050565b600082601f830112612b5d57600080fd5b81356001600160401b03811115612b7657612b76612ade565b612b89601f8201601f1916602001612b1c565b818152846020838601011115612b9e57600080fd5b816020850160208301376000918101602001919091529392505050565b80356001600160a01b0381168114612bd257600080fd5b919050565b600060808284031215612be957600080fd5b604051608081016001600160401b038282108183111715612c0c57612c0c612ade565b81604052829350612c1c85612bbb565b8352612c2a60208601612bbb565b6020840152604085013560408401526060850135915080821115612c4d57600080fd5b50612c5a85828601612b4c565b6060830152505092915050565b600080600080600080600060e0888a031215612c8257600080fd5b8735965060208801356001600160401b0380821115612ca057600080fd5b612cac8b838c01612b4c565b975060408a0135915080821115612cc257600080fd5b612cce8b838c01612b4c565b965060608a0135915080821115612ce457600080fd5b612cf08b838c01612b4c565b955060808a0135915080821115612d0657600080fd5b612d128b838c01612b4c565b945060a08a0135915080821115612d2857600080fd5b612d348b838c01612bd7565b935060c08a0135915080821115612d4a57600080fd5b50612d578a828b01612b4c565b91505092959891949750929550565b600060208284031215612d7857600080fd5b5035919050565b60006001600160401b03821115612d9857612d98612ade565b5060051b60200190565b600082601f830112612db357600080fd5b81356020612dc8612dc383612d7f565b612b1c565b82815260059290921b84018101918181019086841115612de757600080fd5b8286015b84811015612e265780356001600160401b03811115612e0a5760008081fd5b612e188986838b0101612b4c565b845250918301918301612deb565b509695505050505050565b600082601f830112612e4257600080fd5b81356020612e52612dc383612d7f565b82815260059290921b84018101918181019086841115612e7157600080fd5b8286015b84811015612e265780356001600160401b0380821115612e955760008081fd5b908801906060828b03601f1901811315612eaf5760008081fd5b612eb7612af4565b8784013583811115612ec95760008081fd5b612ed78d8a83880101612b4c565b82525060408085013584811115612eee5760008081fd5b612efc8e8b83890101612b4c565b838b015250918401359183831115612f145760008081fd5b612f228d8a85880101612b4c565b908201528652505050918301918301612e75565b60008060008060008060008060008060006101608c8e031215612f5857600080fd5b8b359a506001600160401b038060208e01351115612f7557600080fd5b612f858e60208f01358f01612b4c565b9a508060408e01351115612f9857600080fd5b612fa88e60408f01358f01612b4c565b99508060608e01351115612fbb57600080fd5b612fcb8e60608f01358f01612b4c565b98508060808e01351115612fde57600080fd5b612fee8e60808f01358f01612b4c565b97508060a08e0135111561300157600080fd5b6130118e60a08f01358f01612da2565b96508060c08e0135111561302457600080fd5b6130348e60c08f01358f01612da2565b95508060e08e0135111561304757600080fd5b6130578e60e08f01358f01612e31565b9450806101008e0135111561306b57600080fd5b61307c8e6101008f01358f01612bd7565b9350806101208e0135111561309057600080fd5b6130a18e6101208f01358f01612b4c565b9250806101408e013511156130b557600080fd5b506130c78d6101408e01358e01612b4c565b90509295989b509295989b9093969950565b60005b838110156130f45781810151838201526020016130dc565b50506000910152565b600081518084526131158160208601602086016130d9565b601f01601f19169290920160200192915050565b600060018060a01b03808351168452806020840151166020850152506040820151604084015260608201516080606085015261316860808501826130fd565b949350505050565b8d81526101a06020820152600061318b6101a083018f6130fd565b828103604084015261319d818f6130fd565b905082810360608401526131b1818e6130fd565b905082810360808401526131c5818d6130fd565b6001600160a01b038c1660a0850152905089151560c08401528860e084015287610100840152866101208401528281036101408401526132058187613129565b905082810361016084015261321a81866130fd565b905082810361018084015261322f81856130fd565b9150509e9d5050505050505050505050505050565b600081518084526020808501808196508360051b8101915082860160005b8581101561328c57828403895261327a8483516130fd565b98850198935090840190600101613262565b5091979650505050505050565b600081518084526020808501808196508360051b8101915082860160005b8581101561328c5782840389528151606081518187526132d9828801826130fd565b91505086820151868203888801526132f182826130fd565b9150506040808301519250868203818801525061330e81836130fd565b9a87019a95505050908401906001016132b7565b60208152815160208201526000602083015161020080604085015261334b6102208501836130fd565b91506040850151601f198086850301606087015261336984836130fd565b9350606087015191508086850301608087015261338684836130fd565b935060808701519150808685030160a08701526133a384836130fd565b935060a08701519150808685030160c08701526133c08483613244565b935060c08701519150808685030160e08701526133dd8483613244565b935060e087015191506101008187860301818801526133fc8584613299565b94508088015192505061012061341c818801846001600160a01b03169052565b87015191506101406134318782018415159052565b87015161016087810191909152870151610180808801919091528701516101a08088019190915287015186850382016101c0808901919091529092506134778584613129565b9450808801519250506101e081878603018188015261349685846130fd565b9088015187820390920184880152935090506134b283826130fd565b9695505050505050565b6000602082840312156134ce57600080fd5b81356001600160401b038111156134e457600080fd5b61316884828501612b4c565b60008060006060848603121561350557600080fd5b505081359360208301359350604090920135919050565b6000806040838503121561352f57600080fd5b82356001600160401b0381111561354557600080fd5b61355185828601612b4c565b95602094909401359450505050565b60208082526029908201527f4167656e7452656769737472793a207472616e73616374696f6e20646f6573206040820152681b9bdd08195e1a5cdd60ba1b606082015260800190565b634e487b7160e01b600052601160045260246000fd5b818103818111156135d2576135d26135a9565b92915050565b60208082526018908201527f4167656e7452656769737472793a206e6f74206f776e65720000000000000000604082015260600190565b60208082526023908201527f4167656e7452656769737472793a206167656e7420646f6573206e6f742065786040820152621a5cdd60ea1b606082015260800190565b600181811c9082168061366657607f821691505b60208210810361368657634e487b7160e01b600052602260045260246000fd5b50919050565b601f8211156136d657600081815260208120601f850160051c810160208610156136b35750805b601f850160051c820191505b818110156136d2578281556001016136bf565b5050505b505050565b81516001600160401b038111156136f4576136f4612ade565b613708816137028454613652565b8461368c565b602080601f83116001811461373d57600084156137255750858301515b600019600386901b1c1916600185901b1785556136d2565b600085815260208120601f198616915b8281101561376c5788860151825594840194600190910190840161374d565b508582101561378a5787850151600019600388901b60f8161c191681555b5050505050600190811b01905550565b6020808252602b908201527f4167656e7452656769737472793a207072696365206d7573742062652067726560408201526a061746572207468616e20360ac1b606082015260800190565b634e487b7160e01b600052603260045260246000fd5b60006001820161380d5761380d6135a9565b5060010190565b600082516138268184602087016130d9565b9190910192915050565b60408152600061384360408301856130fd565b828103602084015261385581856130fd565b95945050505050565b80820281158282048414176135d2576135d26135a9565b60008261389257634e487b7160e01b600052601260045260246000fd5b500490565b808201808211156135d2576135d26135a956fea26469706673582212206a4931fee730074d3fd5a38bb91a9a1db26a7f774c58877922d0d9cf1acd672a64736f6c63430008140033",
  "linkReferences": {},
  "deployedLinkReferences": {}
}